{
  "contractName": "PokemonFactory",
  "abi": [
    {
      "anonymous": false,
      "inputs": [
        {
          "indexed": false,
          "internalType": "uint256",
          "name": "id",
          "type": "uint256"
        },
        {
          "indexed": false,
          "internalType": "string",
          "name": "name",
          "type": "string"
        },
        {
          "indexed": false,
          "internalType": "uint256",
          "name": "_hp",
          "type": "uint256"
        },
        {
          "indexed": false,
          "internalType": "uint256",
          "name": "_attack",
          "type": "uint256"
        }
      ],
      "name": "NewPokemon",
      "type": "event"
    },
    {
      "constant": true,
      "inputs": [
        {
          "internalType": "uint256",
          "name": "",
          "type": "uint256"
        }
      ],
      "name": "pokemons",
      "outputs": [
        {
          "internalType": "string",
          "name": "name",
          "type": "string"
        },
        {
          "internalType": "uint256",
          "name": "hp",
          "type": "uint256"
        },
        {
          "internalType": "uint256",
          "name": "attack",
          "type": "uint256"
        }
      ],
      "payable": false,
      "stateMutability": "view",
      "type": "function"
    }
  ],
  "bytecode": "0x608060405234801561001057600080fd5b506101e9806100206000396000f3fe608060405234801561001057600080fd5b506004361061002b5760003560e01c80638583107914610030575b600080fd5b61005c6004803603602081101561004657600080fd5b81019080803590602001909291905050506100e5565b6040518080602001848152602001838152602001828103825285818151815260200191508051906020019080838360005b838110156100a857808201518184015260208101905061008d565b50505050905090810190601f1680156100d55780820380516001836020036101000a031916815260200191505b5094505050505060405180910390f35b600081815481106100f257fe5b9060005260206000209060030201600091509050806000018054600181600116156101000203166002900480601f01602080910402602001604051908101604052809291908181526020018280546001816001161561010002031660029004801561019e5780601f106101735761010080835404028352916020019161019e565b820191906000526020600020905b81548152906001019060200180831161018157829003601f168201915b505050505090806001015490806002015490508356fea265627a7a72315820c566935b501df02ade88cf0a957a8e3e760b59c44c662ca282a372aa3413679a64736f6c63430005100032",
  "source": "pragma solidity >=0.5.0 <0.6.0;\r\n\r\ncontract PokemonFactory {\r\n\r\n    // declare our event here\r\n    event NewPokemon(uint id, string name, uint _hp, uint _attack);\r\n\r\n\r\n    struct Pokemon {\r\n        string name;\r\n        uint hp;\r\n        uint attack ;\r\n    }\r\n\r\n    Pokemon[] public pokemons;\r\n\r\n    function _createPokemon(string memory _name, uint _hp, uint _attack) private {\r\n        pokemons.push(Pokemon(_name, _hp, _attack));\r\n         uint id = pokemons.push(Pokemon(_name, _hp, _attack)) - 1;\r\n        emit NewPokemon(id, _name, _hp, _attack);\r\n    }\r\n\r\n   \r\n\r\n\r\n}\r\n",
  "sourcePath": "E:/ThangNQ/Spring2021/Solidity/pokemon1/contracts/PokemonFactory.sol",
  "compiler": {
    "name": "solc",
    "version": "0.5.16+commit.9c3226ce.Emscripten.clang"
  },
  "schemaVersion": "3.3.4",
  "updatedAt": "2021-03-01T03:52:22.576Z",
  "devdoc": {
    "methods": {}
  },
  "userdoc": {
    "methods": {}
  }
}