{
  "contractName": "PokemonFactory",
  "abi": [
    {
      "anonymous": false,
      "inputs": [
        {
          "indexed": false,
          "internalType": "uint256",
          "name": "id",
          "type": "uint256"
        },
        {
          "indexed": false,
          "internalType": "string",
          "name": "name",
          "type": "string"
        },
        {
          "indexed": false,
          "internalType": "uint256",
          "name": "_hp",
          "type": "uint256"
        },
        {
          "indexed": false,
          "internalType": "uint256",
          "name": "_attack",
          "type": "uint256"
        }
      ],
      "name": "NewPokemon",
      "type": "event"
    },
    {
      "constant": true,
      "inputs": [
        {
          "internalType": "uint256",
          "name": "",
          "type": "uint256"
        }
      ],
      "name": "pokemonToOwner",
      "outputs": [
        {
          "internalType": "address",
          "name": "",
          "type": "address"
        }
      ],
      "payable": false,
      "stateMutability": "view",
      "type": "function"
    },
    {
      "constant": true,
      "inputs": [
        {
          "internalType": "uint256",
          "name": "",
          "type": "uint256"
        }
      ],
      "name": "pokemons",
      "outputs": [
        {
          "internalType": "string",
          "name": "name",
          "type": "string"
        },
        {
          "internalType": "uint256",
          "name": "hp",
          "type": "uint256"
        },
        {
          "internalType": "uint256",
          "name": "attack",
          "type": "uint256"
        }
      ],
      "payable": false,
      "stateMutability": "view",
      "type": "function"
    }
  ],
  "bytecode": "0x608060405234801561001057600080fd5b50610295806100206000396000f3fe608060405234801561001057600080fd5b50600436106100365760003560e01c80632f7467b31461003b57806385831079146100a9575b600080fd5b6100676004803603602081101561005157600080fd5b810190808035906020019092919050505061015e565b604051808273ffffffffffffffffffffffffffffffffffffffff1673ffffffffffffffffffffffffffffffffffffffff16815260200191505060405180910390f35b6100d5600480360360208110156100bf57600080fd5b8101908080359060200190929190505050610191565b6040518080602001848152602001838152602001828103825285818151815260200191508051906020019080838360005b83811015610121578082015181840152602081019050610106565b50505050905090810190601f16801561014e5780820380516001836020036101000a031916815260200191505b5094505050505060405180910390f35b60016020528060005260406000206000915054906101000a900473ffffffffffffffffffffffffffffffffffffffff1681565b6000818154811061019e57fe5b9060005260206000209060030201600091509050806000018054600181600116156101000203166002900480601f01602080910402602001604051908101604052809291908181526020018280546001816001161561010002031660029004801561024a5780601f1061021f5761010080835404028352916020019161024a565b820191906000526020600020905b81548152906001019060200180831161022d57829003601f168201915b505050505090806001015490806002015490508356fea265627a7a723158202c45efe018a27416e8ebe224c3d4d3e3fb459e04f8160dcde9aa7c07307f36af64736f6c63430005100032",
  "source": "pragma solidity >=0.5.0 <0.6.0;\r\n\r\ncontract PokemonFactory {\r\n\r\n    // declare our event here\r\n    event NewPokemon(uint id, string name, uint _hp, uint _attack);\r\n\r\n\r\n    struct Pokemon {\r\n        string name;\r\n        uint hp;\r\n        uint attack ;\r\n    }\r\n\r\n    Pokemon[] public pokemons;\r\n\r\n    \r\n    mapping (uint => address) public pokemonToOwner;\r\n    mapping (address => uint) ownerPokemonsCount;\r\n\r\n    function _createPokemon(string memory _name, uint _hp, uint _attack) internal  {\r\n        pokemons.push(Pokemon(_name, _hp, _attack));\r\n         uint id = pokemons.push(Pokemon(_name, _hp, _attack)) - 1;\r\n         pokemonToOwner[id] = msg.sender;\r\n        ownerPokemonsCount[msg.sender]++;\r\n        emit NewPokemon(id, _name, _hp, _attack);\r\n    }\r\n\r\n   \r\n\r\n\r\n}\r\n",
  "sourcePath": "E:/ThangNQ/Spring2021/Solidity/pokemon1/contracts/PokemonFactory.sol",
  "compiler": {
    "name": "solc",
    "version": "0.5.16+commit.9c3226ce.Emscripten.clang"
  },
  "schemaVersion": "3.3.4",
  "updatedAt": "2021-03-01T03:59:09.412Z",
  "devdoc": {
    "methods": {}
  },
  "userdoc": {
    "methods": {}
  }
}