{
  "contractName": "PokemonFactory",
  "abi": [
    {
      "anonymous": false,
      "inputs": [
        {
          "indexed": false,
          "internalType": "uint256",
          "name": "id",
          "type": "uint256"
        },
        {
          "indexed": false,
          "internalType": "string",
          "name": "_name",
          "type": "string"
        },
        {
          "indexed": false,
          "internalType": "uint256",
          "name": "_hp",
          "type": "uint256"
        },
        {
          "indexed": false,
          "internalType": "uint256",
          "name": "_attack",
          "type": "uint256"
        },
        {
          "indexed": false,
          "internalType": "string",
          "name": "_imgUrl",
          "type": "string"
        }
      ],
      "name": "NewPokemon",
      "type": "event"
    },
    {
      "constant": true,
      "inputs": [
        {
          "internalType": "uint256",
          "name": "",
          "type": "uint256"
        }
      ],
      "name": "pokemonToOwner",
      "outputs": [
        {
          "internalType": "address",
          "name": "",
          "type": "address"
        }
      ],
      "payable": false,
      "stateMutability": "view",
      "type": "function"
    },
    {
      "constant": true,
      "inputs": [
        {
          "internalType": "uint256",
          "name": "",
          "type": "uint256"
        }
      ],
      "name": "pokemons",
      "outputs": [
        {
          "internalType": "string",
          "name": "name",
          "type": "string"
        },
        {
          "internalType": "uint256",
          "name": "hp",
          "type": "uint256"
        },
        {
          "internalType": "uint256",
          "name": "attack",
          "type": "uint256"
        },
        {
          "internalType": "string",
          "name": "_imgUrl",
          "type": "string"
        }
      ],
      "payable": false,
      "stateMutability": "view",
      "type": "function"
    }
  ],
  "bytecode": "0x60806040526201518060005534801561001757600080fd5b5061039f806100276000396000f3fe608060405234801561001057600080fd5b50600436106100365760003560e01c80632f7467b31461003b57806385831079146100a9575b600080fd5b6100676004803603602081101561005157600080fd5b81019080803590602001909291905050506101ca565b604051808273ffffffffffffffffffffffffffffffffffffffff1673ffffffffffffffffffffffffffffffffffffffff16815260200191505060405180910390f35b6100d5600480360360208110156100bf57600080fd5b81019080803590602001909291905050506101fd565b604051808060200185815260200184815260200180602001838103835287818151815260200191508051906020019080838360005b8381101561012557808201518184015260208101905061010a565b50505050905090810190601f1680156101525780820380516001836020036101000a031916815260200191505b50838103825284818151815260200191508051906020019080838360005b8381101561018b578082015181840152602081019050610170565b50505050905090810190601f1680156101b85780820380516001836020036101000a031916815260200191505b50965050505050505060405180910390f35b60026020528060005260406000206000915054906101000a900473ffffffffffffffffffffffffffffffffffffffff1681565b6001818154811061020a57fe5b9060005260206000209060040201600091509050806000018054600181600116156101000203166002900480601f0160208091040260200160405190810160405280929190818152602001828054600181600116156101000203166002900480156102b65780601f1061028b576101008083540402835291602001916102b6565b820191906000526020600020905b81548152906001019060200180831161029957829003601f168201915b505050505090806001015490806002015490806003018054600181600116156101000203166002900480601f0160208091040260200160405190810160405280929190818152602001828054600181600116156101000203166002900480156103605780601f1061033557610100808354040283529160200191610360565b820191906000526020600020905b81548152906001019060200180831161034357829003601f168201915b505050505090508456fea265627a7a72315820ba9a589a1e800cf5e01e633bac4f2b2679c5db56662c82d1089cc19a2936c49d64736f6c63430005100032",
  "source": "pragma solidity >=0.5.0 <0.6.0;\r\n\r\ncontract PokemonFactory {\r\n        uint cooldownTime = 1 days;\r\n\r\n\r\n    // declare our event here\r\n    event NewPokemon(uint id, string _name, uint _hp, uint _attack ,string _imgUrl);\r\n\r\n\r\n    struct Pokemon {\r\n        string name;\r\n        uint hp;\r\n        uint attack ;\r\n        string _imgUrl;\r\n    }\r\n\r\n    Pokemon[] public pokemons;\r\n\r\n    \r\n    mapping (uint => address) public pokemonToOwner;\r\n    mapping (address => uint) ownerPokemonsCount;\r\n\r\n    function _createPokemon(string memory _name, uint _hp, uint _attack , string memory _imgUrl) internal  {\r\n        pokemons.push(Pokemon(_name, _hp, _attack , _imgUrl));\r\n        uint id = pokemons.push(Pokemon(_name, _hp, _attack, _imgUrl)) - 1;\r\n        pokemonToOwner[id] = msg.sender;\r\n        ownerPokemonsCount[msg.sender]++;\r\n        emit NewPokemon(id, _name, _hp, _attack ,_imgUrl);\r\n    }\r\n\r\n   \r\n\r\n\r\n}\r\n",
  "sourcePath": "E:/ThangNQ/Spring2021/Solidity/pokemon1/contracts/PokemonFactory.sol",
  "compiler": {
    "name": "solc",
    "version": "0.5.16+commit.9c3226ce.Emscripten.clang"
  },
  "schemaVersion": "3.3.4",
  "updatedAt": "2021-03-01T07:45:07.770Z",
  "devdoc": {
    "methods": {}
  },
  "userdoc": {
    "methods": {}
  }
}