{
  "contractName": "PokemonFactory",
  "abi": [
    {
      "anonymous": false,
      "inputs": [
        {
          "indexed": false,
          "internalType": "uint256",
          "name": "id",
          "type": "uint256"
        },
        {
          "indexed": false,
          "internalType": "string",
          "name": "_name",
          "type": "string"
        },
        {
          "indexed": false,
          "internalType": "uint256",
          "name": "_hp",
          "type": "uint256"
        },
        {
          "indexed": false,
          "internalType": "uint256",
          "name": "_attack",
          "type": "uint256"
        },
        {
          "indexed": false,
          "internalType": "string",
          "name": "_imgUrl",
          "type": "string"
        }
      ],
      "name": "NewPokemon",
      "type": "event"
    },
    {
      "constant": true,
      "inputs": [
        {
          "internalType": "uint256",
          "name": "",
          "type": "uint256"
        }
      ],
      "name": "pokemonToOwner",
      "outputs": [
        {
          "internalType": "address",
          "name": "",
          "type": "address"
        }
      ],
      "payable": false,
      "stateMutability": "view",
      "type": "function"
    },
    {
      "constant": true,
      "inputs": [
        {
          "internalType": "uint256",
          "name": "",
          "type": "uint256"
        }
      ],
      "name": "pokemons",
      "outputs": [
        {
          "internalType": "string",
          "name": "name",
          "type": "string"
        },
        {
          "internalType": "uint256",
          "name": "hp",
          "type": "uint256"
        },
        {
          "internalType": "uint256",
          "name": "attack",
          "type": "uint256"
        },
        {
          "internalType": "string",
          "name": "_imgUrl",
          "type": "string"
        }
      ],
      "payable": false,
      "stateMutability": "view",
      "type": "function"
    },
    {
      "constant": false,
      "inputs": [
        {
          "internalType": "string",
          "name": "_name",
          "type": "string"
        },
        {
          "internalType": "uint256",
          "name": "_hp",
          "type": "uint256"
        },
        {
          "internalType": "uint256",
          "name": "_attack",
          "type": "uint256"
        },
        {
          "internalType": "string",
          "name": "_imgUrl",
          "type": "string"
        }
      ],
      "name": "_createPokemon",
      "outputs": [],
      "payable": false,
      "stateMutability": "nonpayable",
      "type": "function"
    },
    {
      "constant": true,
      "inputs": [
        {
          "internalType": "address",
          "name": "_owner",
          "type": "address"
        }
      ],
      "name": "getPokemonsByOwner",
      "outputs": [
        {
          "internalType": "uint256[]",
          "name": "",
          "type": "uint256[]"
        }
      ],
      "payable": false,
      "stateMutability": "view",
      "type": "function"
    }
  ],
  "bytecode": "0x60806040526201518060005534801561001757600080fd5b506109e2806100276000396000f3fe608060405234801561001057600080fd5b506004361061004c5760003560e01c80632f7467b31461005157806335beeb27146100bf578063858310791461015857806385fa2b2314610279575b600080fd5b61007d6004803603602081101561006757600080fd5b81019080803590602001909291905050506103df565b604051808273ffffffffffffffffffffffffffffffffffffffff1673ffffffffffffffffffffffffffffffffffffffff16815260200191505060405180910390f35b610101600480360360208110156100d557600080fd5b81019080803573ffffffffffffffffffffffffffffffffffffffff169060200190929190505050610412565b6040518080602001828103825283818151815260200191508051906020019060200280838360005b83811015610144578082015181840152602081019050610129565b505050509050019250505060405180910390f35b6101846004803603602081101561016e57600080fd5b810190808035906020019092919050505061048f565b604051808060200185815260200184815260200180602001838103835287818151815260200191508051906020019080838360005b838110156101d45780820151818401526020810190506101b9565b50505050905090810190601f1680156102015780820380516001836020036101000a031916815260200191505b50838103825284818151815260200191508051906020019080838360005b8381101561023a57808201518184015260208101905061021f565b50505050905090810190601f1680156102675780820380516001836020036101000a031916815260200191505b50965050505050505060405180910390f35b6103dd6004803603608081101561028f57600080fd5b81019080803590602001906401000000008111156102ac57600080fd5b8201836020820111156102be57600080fd5b803590602001918460018302840111640100000000831117156102e057600080fd5b91908080601f016020809104026020016040519081016040528093929190818152602001838380828437600081840152601f19601f82011690508083019250505050505050919291929080359060200190929190803590602001909291908035906020019064010000000081111561035757600080fd5b82018360208201111561036957600080fd5b8035906020019184600183028401116401000000008311171561038b57600080fd5b91908080601f016020809104026020016040519081016040528093929190818152602001838380828437600081840152601f19601f8201169050808301925050505050505091929192905050506105fc565b005b60026020528060005260406000206000915054906101000a900473ffffffffffffffffffffffffffffffffffffffff1681565b606080600360008473ffffffffffffffffffffffffffffffffffffffff1673ffffffffffffffffffffffffffffffffffffffff168152602001908152602001600020546040519080825280602002602001820160405280156104835781602001602082028038833980820191505090505b50905080915050919050565b6001818154811061049c57fe5b9060005260206000209060040201600091509050806000018054600181600116156101000203166002900480601f0160208091040260200160405190810160405280929190818152602001828054600181600116156101000203166002900480156105485780601f1061051d57610100808354040283529160200191610548565b820191906000526020600020905b81548152906001019060200180831161052b57829003601f168201915b505050505090806001015490806002015490806003018054600181600116156101000203166002900480601f0160208091040260200160405190810160405280929190818152602001828054600181600116156101000203166002900480156105f25780601f106105c7576101008083540402835291602001916105f2565b820191906000526020600020905b8154815290600101906020018083116105d557829003601f168201915b5050505050905084565b6001604051806080016040528086815260200185815260200184815260200183815250908060018154018082558091505090600182039060005260206000209060040201600090919290919091506000820151816000019080519060200190610666929190610908565b5060208201518160010155604082015181600201556060820151816003019080519060200190610697929190610908565b505050506000600180604051806080016040528088815260200187815260200186815260200185815250908060018154018082558091505090600182039060005260206000209060040201600090919290919091506000820151816000019080519060200190610708929190610908565b5060208201518160010155604082015181600201556060820151816003019080519060200190610739929190610908565b505050039050336002600083815260200190815260200160002060006101000a81548173ffffffffffffffffffffffffffffffffffffffff021916908373ffffffffffffffffffffffffffffffffffffffff160217905550600360003373ffffffffffffffffffffffffffffffffffffffff1673ffffffffffffffffffffffffffffffffffffffff168152602001908152602001600020600081548092919060010191905055507f256aa9216621c83023b4dee83e0f11f51f5c6f75fbbf9ab6209d0c89a137b1d98186868686604051808681526020018060200185815260200184815260200180602001838103835287818151815260200191508051906020019080838360005b8381101561085c578082015181840152602081019050610841565b50505050905090810190601f1680156108895780820380516001836020036101000a031916815260200191505b50838103825284818151815260200191508051906020019080838360005b838110156108c25780820151818401526020810190506108a7565b50505050905090810190601f1680156108ef5780820380516001836020036101000a031916815260200191505b5097505050505050505060405180910390a15050505050565b828054600181600116156101000203166002900490600052602060002090601f016020900481019282601f1061094957805160ff1916838001178555610977565b82800160010185558215610977579182015b8281111561097657825182559160200191906001019061095b565b5b5090506109849190610988565b5090565b6109aa91905b808211156109a657600081600090555060010161098e565b5090565b9056fea265627a7a723158203e2850524fa79dfa26955fc862d66e71f7b92e8cd83c4c18b551ac96660670e564736f6c63430005100032",
  "source": "pragma solidity >=0.5.0 <0.6.0;\r\n\r\ncontract PokemonFactory {\r\n        uint cooldownTime = 1 days;\r\n\r\n\r\n    // declare our event here\r\n    event NewPokemon(uint id, string _name, uint _hp, uint _attack ,string _imgUrl);\r\n\r\n\r\n    struct Pokemon {\r\n        string name;\r\n        uint hp;\r\n        uint attack ;\r\n        string _imgUrl;\r\n    }\r\n\r\n    Pokemon[] public pokemons;\r\n\r\n    \r\n    mapping (uint => address) public pokemonToOwner;\r\n    mapping (address => uint) ownerPokemonsCount;\r\n\r\n    function _createPokemon(string memory _name, uint _hp, uint _attack , string memory _imgUrl) public  {\r\n        pokemons.push(Pokemon(_name, _hp, _attack , _imgUrl));\r\n        uint id = pokemons.push(Pokemon(_name, _hp, _attack, _imgUrl)) - 1;\r\n        pokemonToOwner[id] = msg.sender;\r\n        ownerPokemonsCount[msg.sender]++;\r\n        emit NewPokemon(id, _name, _hp, _attack ,_imgUrl);\r\n    }\r\n\r\n function getPokemonsByOwner(address _owner) external view returns(uint[] memory) {\r\n    uint[] memory result = new uint[](ownerPokemonsCount[_owner]);\r\n    // Start here\r\n    return result;\r\n  }\r\n\r\n\r\n}\r\n",
  "sourcePath": "E:/ThangNQ/Spring2021/Solidity/pokemon1/contracts/PokemonFactory.sol",
  "compiler": {
    "name": "solc",
    "version": "0.5.16+commit.9c3226ce.Emscripten.clang"
  },
  "schemaVersion": "3.3.4",
  "updatedAt": "2021-03-01T09:50:56.076Z",
  "devdoc": {
    "methods": {}
  },
  "userdoc": {
    "methods": {}
  }
}